{
  "abi": [
    {
      "type": "constructor",
      "inputs": [
        {
          "name": "_pyusdAddress",
          "type": "address",
          "internalType": "address"
        },
        {
          "name": "_zkVerifier",
          "type": "address",
          "internalType": "address"
        }
      ],
      "stateMutability": "nonpayable"
    },
    {
      "type": "function",
      "name": "deposit",
      "inputs": [
        {
          "name": "amountUSD",
          "type": "uint256",
          "internalType": "uint256"
        }
      ],
      "outputs": [],
      "stateMutability": "nonpayable"
    },
    {
      "type": "function",
      "name": "depositForUser",
      "inputs": [
        {
          "name": "user",
          "type": "address",
          "internalType": "address"
        },
        {
          "name": "amountCents",
          "type": "uint256",
          "internalType": "uint256"
        }
      ],
      "outputs": [],
      "stateMutability": "nonpayable"
    },
    {
      "type": "function",
      "name": "emergencyWithdraw",
      "inputs": [
        {
          "name": "token",
          "type": "address",
          "internalType": "address"
        },
        {
          "name": "amount",
          "type": "uint256",
          "internalType": "uint256"
        }
      ],
      "outputs": [],
      "stateMutability": "nonpayable"
    },
    {
      "type": "function",
      "name": "getProviderBalance",
      "inputs": [
        {
          "name": "provider",
          "type": "address",
          "internalType": "address"
        }
      ],
      "outputs": [
        {
          "name": "",
          "type": "uint256",
          "internalType": "uint256"
        }
      ],
      "stateMutability": "view"
    },
    {
      "type": "function",
      "name": "getUserBalance",
      "inputs": [
        {
          "name": "user",
          "type": "address",
          "internalType": "address"
        }
      ],
      "outputs": [
        {
          "name": "",
          "type": "uint256",
          "internalType": "uint256"
        }
      ],
      "stateMutability": "view"
    },
    {
      "type": "function",
      "name": "getUserBalanceUSD",
      "inputs": [
        {
          "name": "user",
          "type": "address",
          "internalType": "address"
        }
      ],
      "outputs": [
        {
          "name": "",
          "type": "uint256",
          "internalType": "uint256"
        }
      ],
      "stateMutability": "view"
    },
    {
      "type": "function",
      "name": "owner",
      "inputs": [],
      "outputs": [
        {
          "name": "",
          "type": "address",
          "internalType": "address"
        }
      ],
      "stateMutability": "view"
    },
    {
      "type": "function",
      "name": "pause",
      "inputs": [],
      "outputs": [],
      "stateMutability": "nonpayable"
    },
    {
      "type": "function",
      "name": "paused",
      "inputs": [],
      "outputs": [
        {
          "name": "",
          "type": "bool",
          "internalType": "bool"
        }
      ],
      "stateMutability": "view"
    },
    {
      "type": "function",
      "name": "processBatchPayment",
      "inputs": [
        {
          "name": "user",
          "type": "address",
          "internalType": "address"
        },
        {
          "name": "provider",
          "type": "address",
          "internalType": "address"
        },
        {
          "name": "amountCents",
          "type": "uint256",
          "internalType": "uint256"
        },
        {
          "name": "numCalls",
          "type": "uint256",
          "internalType": "uint256"
        },
        {
          "name": "proof",
          "type": "bytes",
          "internalType": "bytes"
        },
        {
          "name": "publicInputs",
          "type": "uint256[]",
          "internalType": "uint256[]"
        }
      ],
      "outputs": [],
      "stateMutability": "nonpayable"
    },
    {
      "type": "function",
      "name": "providerBalances",
      "inputs": [
        {
          "name": "",
          "type": "address",
          "internalType": "address"
        }
      ],
      "outputs": [
        {
          "name": "",
          "type": "uint256",
          "internalType": "uint256"
        }
      ],
      "stateMutability": "view"
    },
    {
      "type": "function",
      "name": "providerWithdraw",
      "inputs": [
        {
          "name": "amountCents",
          "type": "uint256",
          "internalType": "uint256"
        }
      ],
      "outputs": [],
      "stateMutability": "nonpayable"
    },
    {
      "type": "function",
      "name": "providerWithdrawAll",
      "inputs": [],
      "outputs": [],
      "stateMutability": "nonpayable"
    },
    {
      "type": "function",
      "name": "pyusdToken",
      "inputs": [],
      "outputs": [
        {
          "name": "",
          "type": "address",
          "internalType": "contract IERC20"
        }
      ],
      "stateMutability": "view"
    },
    {
      "type": "function",
      "name": "renounceOwnership",
      "inputs": [],
      "outputs": [],
      "stateMutability": "nonpayable"
    },
    {
      "type": "function",
      "name": "setZkVerifier",
      "inputs": [
        {
          "name": "_zkVerifier",
          "type": "address",
          "internalType": "address"
        }
      ],
      "outputs": [],
      "stateMutability": "nonpayable"
    },
    {
      "type": "function",
      "name": "transferOwnership",
      "inputs": [
        {
          "name": "newOwner",
          "type": "address",
          "internalType": "address"
        }
      ],
      "outputs": [],
      "stateMutability": "nonpayable"
    },
    {
      "type": "function",
      "name": "unpause",
      "inputs": [],
      "outputs": [],
      "stateMutability": "nonpayable"
    },
    {
      "type": "function",
      "name": "userBalances",
      "inputs": [
        {
          "name": "",
          "type": "address",
          "internalType": "address"
        }
      ],
      "outputs": [
        {
          "name": "",
          "type": "uint256",
          "internalType": "uint256"
        }
      ],
      "stateMutability": "view"
    },
    {
      "type": "function",
      "name": "withdraw",
      "inputs": [
        {
          "name": "amountCents",
          "type": "uint256",
          "internalType": "uint256"
        }
      ],
      "outputs": [],
      "stateMutability": "nonpayable"
    },
    {
      "type": "function",
      "name": "zkVerifier",
      "inputs": [],
      "outputs": [
        {
          "name": "",
          "type": "address",
          "internalType": "contract IVerifier"
        }
      ],
      "stateMutability": "view"
    },
    {
      "type": "event",
      "name": "BatchPayment",
      "inputs": [
        {
          "name": "user",
          "type": "address",
          "indexed": true,
          "internalType": "address"
        },
        {
          "name": "provider",
          "type": "address",
          "indexed": true,
          "internalType": "address"
        },
        {
          "name": "amount",
          "type": "uint256",
          "indexed": false,
          "internalType": "uint256"
        },
        {
          "name": "numCalls",
          "type": "uint256",
          "indexed": false,
          "internalType": "uint256"
        }
      ],
      "anonymous": false
    },
    {
      "type": "event",
      "name": "OwnershipTransferred",
      "inputs": [
        {
          "name": "previousOwner",
          "type": "address",
          "indexed": true,
          "internalType": "address"
        },
        {
          "name": "newOwner",
          "type": "address",
          "indexed": true,
          "internalType": "address"
        }
      ],
      "anonymous": false
    },
    {
      "type": "event",
      "name": "Paused",
      "inputs": [
        {
          "name": "account",
          "type": "address",
          "indexed": false,
          "internalType": "address"
        }
      ],
      "anonymous": false
    },
    {
      "type": "event",
      "name": "ProviderWithdraw",
      "inputs": [
        {
          "name": "provider",
          "type": "address",
          "indexed": true,
          "internalType": "address"
        },
        {
          "name": "amount",
          "type": "uint256",
          "indexed": false,
          "internalType": "uint256"
        }
      ],
      "anonymous": false
    },
    {
      "type": "event",
      "name": "Unpaused",
      "inputs": [
        {
          "name": "account",
          "type": "address",
          "indexed": false,
          "internalType": "address"
        }
      ],
      "anonymous": false
    },
    {
      "type": "event",
      "name": "UserDeposit",
      "inputs": [
        {
          "name": "user",
          "type": "address",
          "indexed": true,
          "internalType": "address"
        },
        {
          "name": "amount",
          "type": "uint256",
          "indexed": false,
          "internalType": "uint256"
        }
      ],
      "anonymous": false
    },
    {
      "type": "event",
      "name": "UserWithdraw",
      "inputs": [
        {
          "name": "user",
          "type": "address",
          "indexed": true,
          "internalType": "address"
        },
        {
          "name": "amount",
          "type": "uint256",
          "indexed": false,
          "internalType": "uint256"
        }
      ],
      "anonymous": false
    },
    {
      "type": "event",
      "name": "ZkVerifierUpdated",
      "inputs": [
        {
          "name": "oldVerifier",
          "type": "address",
          "indexed": true,
          "internalType": "address"
        },
        {
          "name": "newVerifier",
          "type": "address",
          "indexed": true,
          "internalType": "address"
        }
      ],
      "anonymous": false
    },
    {
      "type": "error",
      "name": "EnforcedPause",
      "inputs": []
    },
    {
      "type": "error",
      "name": "ExpectedPause",
      "inputs": []
    },
    {
      "type": "error",
      "name": "OwnableInvalidOwner",
      "inputs": [
        {
          "name": "owner",
          "type": "address",
          "internalType": "address"
        }
      ]
    },
    {
      "type": "error",
      "name": "OwnableUnauthorizedAccount",
      "inputs": [
        {
          "name": "account",
          "type": "address",
          "internalType": "address"
        }
      ]
    },
    {
      "type": "error",
      "name": "ReentrancyGuardReentrantCall",
      "inputs": []
    },
    {
      "type": "error",
      "name": "SafeERC20FailedOperation",
      "inputs": [
        {
          "name": "token",
          "type": "address",
          "internalType": "address"
        }
      ]
    }
  ],
  "bytecode": {
    "object": "0x60a060405234801561000f575f5ffd5b5060405161257538038061257583398181016040528101906100319190610254565b3360015f819055505f73ffffffffffffffffffffffffffffffffffffffff168173ffffffffffffffffffffffffffffffffffffffff16036100a9575f6040517f1e4fbdf70000000000000000000000000000000000000000000000000000000081526004016100a091906102a1565b60405180910390fd5b6100b88161013460201b60201c565b508173ffffffffffffffffffffffffffffffffffffffff1660808173ffffffffffffffffffffffffffffffffffffffff16815250508060025f6101000a81548173ffffffffffffffffffffffffffffffffffffffff021916908373ffffffffffffffffffffffffffffffffffffffff16021790555050506102ba565b5f60018054906101000a900473ffffffffffffffffffffffffffffffffffffffff169050816001806101000a81548173ffffffffffffffffffffffffffffffffffffffff021916908373ffffffffffffffffffffffffffffffffffffffff1602179055508173ffffffffffffffffffffffffffffffffffffffff168173ffffffffffffffffffffffffffffffffffffffff167f8be0079c531659141344cd1fd0a4f28419497f9722a3daafe3b4186f6b6457e060405160405180910390a35050565b5f5ffd5b5f73ffffffffffffffffffffffffffffffffffffffff82169050919050565b5f610223826101fa565b9050919050565b61023381610219565b811461023d575f5ffd5b50565b5f8151905061024e8161022a565b92915050565b5f5f6040838503121561026a576102696101f6565b5b5f61027785828601610240565b925050602061028885828601610240565b9150509250929050565b61029b81610219565b82525050565b5f6020820190506102b45f830184610292565b92915050565b6080516122876102ee5f395f81816104cd015281816106b60152818161085601528181610b3a0152610c4201526122875ff3fe608060405234801561000f575f5ffd5b5060043610610135575f3560e01c80638da5cb5b116100b6578063b6b55f251161007a578063b6b55f25146102eb578063c646a19b14610307578063cbd076f814610323578063cec2834a1461033f578063d6df096d1461036f578063f2fde38b1461038d57610135565b80638da5cb5b1461025b578063917630091461027957806395ccea671461029757806396913528146102b35780639e2176f9146102cf57610135565b806347734892116100fd57806347734892146101c95780635c975abb146101f9578063715018a614610217578063832eea0c146102215780638456cb591461025157610135565b806326224c641461013957806328ac7f2c146101695780632c1e38e1146101995780632e1a7d4d146101a35780633f4ba83a146101bf575b5f5ffd5b610153600480360381019061014e919061175a565b6103a9565b604051610160919061179d565b60405180910390f35b610183600480360381019061017e919061175a565b6103be565b604051610190919061179d565b60405180910390f35b6101a16103d3565b005b6101bd60048036038101906101b891906117e0565b61056b565b005b6101c7610755565b005b6101e360048036038101906101de919061175a565b610767565b6040516101f0919061179d565b60405180910390f35b6102016107ad565b60405161020e9190611825565b60405180910390f35b61021f6107c2565b005b61023b6004803603810190610236919061175a565b6107d5565b604051610248919061179d565b60405180910390f35b61025961081b565b005b61026361082d565b604051610270919061184d565b60405180910390f35b610281610854565b60405161028e91906118c1565b60405180910390f35b6102b160048036038101906102ac91906118da565b610878565b005b6102cd60048036038101906102c8919061175a565b6108b6565b005b6102e960048036038101906102e491906117e0565b6109ef565b005b610305600480360381019061030091906117e0565b610bd9565b005b610321600480360381019061031c9190611ac1565b610d45565b005b61033d600480360381019061033891906118da565b611087565b005b6103596004803603810190610354919061175a565b611178565b604051610366919061179d565b60405180910390f35b6103776111ca565b6040516103849190611ba7565b60405180910390f35b6103a760048036038101906103a2919061175a565b6111ef565b005b6003602052805f5260405f205f915090505481565b6004602052805f5260405f205f915090505481565b6103db611273565b6103e36112b7565b5f60045f3373ffffffffffffffffffffffffffffffffffffffff1673ffffffffffffffffffffffffffffffffffffffff1681526020019081526020015f205490505f8111610466576040517f08c379a000000000000000000000000000000000000000000000000000000000815260040161045d90611c1a565b60405180910390fd5b5f60045f3373ffffffffffffffffffffffffffffffffffffffff1673ffffffffffffffffffffffffffffffffffffffff1681526020019081526020015f20819055505f6064620f4240836104ba9190611c65565b6104c49190611cd3565b905061051133827f000000000000000000000000000000000000000000000000000000000000000073ffffffffffffffffffffffffffffffffffffffff166112f89092919063ffffffff16565b3373ffffffffffffffffffffffffffffffffffffffff167f12e802b6ed6e970b958406df898001b6336cab376c17f335ea72d122ecdf3c2d83604051610557919061179d565b60405180910390a25050610569611377565b565b610573611273565b61057b6112b7565b805f81116105be576040517f08c379a00000000000000000000000000000000000000000000000000000000081526004016105b590611d4d565b60405180910390fd5b8160035f3373ffffffffffffffffffffffffffffffffffffffff1673ffffffffffffffffffffffffffffffffffffffff1681526020019081526020015f2054101561063e576040517f08c379a000000000000000000000000000000000000000000000000000000000815260040161063590611db5565b60405180910390fd5b8160035f3373ffffffffffffffffffffffffffffffffffffffff1673ffffffffffffffffffffffffffffffffffffffff1681526020019081526020015f205f82825461068a9190611dd3565b925050819055505f6064620f4240846106a39190611c65565b6106ad9190611cd3565b90506106fa33827f000000000000000000000000000000000000000000000000000000000000000073ffffffffffffffffffffffffffffffffffffffff166112f89092919063ffffffff16565b3373ffffffffffffffffffffffffffffffffffffffff167f98824d89d47225910d3e61aa38b640d29d58b43e2dc47b4d986a588c88e0a2a884604051610740919061179d565b60405180910390a25050610752611377565b50565b61075d611380565b610765611407565b565b5f60035f8373ffffffffffffffffffffffffffffffffffffffff1673ffffffffffffffffffffffffffffffffffffffff1681526020019081526020015f20549050919050565b5f60015f9054906101000a900460ff16905090565b6107ca611380565b6107d35f611468565b565b5f60045f8373ffffffffffffffffffffffffffffffffffffffff1673ffffffffffffffffffffffffffffffffffffffff1681526020019081526020015f20549050919050565b610823611380565b61082b61152a565b565b5f60018054906101000a900473ffffffffffffffffffffffffffffffffffffffff16905090565b7f000000000000000000000000000000000000000000000000000000000000000081565b610880611380565b6108b261088b61082d565b828473ffffffffffffffffffffffffffffffffffffffff166112f89092919063ffffffff16565b5050565b6108be611380565b5f73ffffffffffffffffffffffffffffffffffffffff168173ffffffffffffffffffffffffffffffffffffffff160361092c576040517f08c379a000000000000000000000000000000000000000000000000000000000815260040161092390611e50565b60405180910390fd5b5f60025f9054906101000a900473ffffffffffffffffffffffffffffffffffffffff1690508160025f6101000a81548173ffffffffffffffffffffffffffffffffffffffff021916908373ffffffffffffffffffffffffffffffffffffffff1602179055508173ffffffffffffffffffffffffffffffffffffffff168173ffffffffffffffffffffffffffffffffffffffff167ff335fdec5c467dfdc8bca7991b97cb3bc62c88c8467dedce3044baff0527cad660405160405180910390a35050565b6109f7611273565b6109ff6112b7565b805f8111610a42576040517f08c379a0000000000000000000000000000000000000000000000000000000008152600401610a3990611d4d565b60405180910390fd5b8160045f3373ffffffffffffffffffffffffffffffffffffffff1673ffffffffffffffffffffffffffffffffffffffff1681526020019081526020015f20541015610ac2576040517f08c379a0000000000000000000000000000000000000000000000000000000008152600401610ab990611db5565b60405180910390fd5b8160045f3373ffffffffffffffffffffffffffffffffffffffff1673ffffffffffffffffffffffffffffffffffffffff1681526020019081526020015f205f828254610b0e9190611dd3565b925050819055505f6064620f424084610b279190611c65565b610b319190611cd3565b9050610b7e33827f000000000000000000000000000000000000000000000000000000000000000073ffffffffffffffffffffffffffffffffffffffff166112f89092919063ffffffff16565b3373ffffffffffffffffffffffffffffffffffffffff167f12e802b6ed6e970b958406df898001b6336cab376c17f335ea72d122ecdf3c2d84604051610bc4919061179d565b60405180910390a25050610bd6611377565b50565b610be1611273565b610be96112b7565b805f8111610c2c576040517f08c379a0000000000000000000000000000000000000000000000000000000008152600401610c2390611d4d565b60405180910390fd5b610c873330620f424085610c409190611c65565b7f000000000000000000000000000000000000000000000000000000000000000073ffffffffffffffffffffffffffffffffffffffff1661158b909392919063ffffffff16565b5f606483610c959190611c65565b90508060035f3373ffffffffffffffffffffffffffffffffffffffff1673ffffffffffffffffffffffffffffffffffffffff1681526020019081526020015f205f828254610ce39190611e6e565b925050819055503373ffffffffffffffffffffffffffffffffffffffff167f35db3d768e685509e031bae369804ca7dc6656af739e079f1d3312cadc7b19d882604051610d30919061179d565b60405180910390a25050610d42611377565b50565b610d4d611273565b610d556112b7565b610d5d611380565b8460035f8973ffffffffffffffffffffffffffffffffffffffff1673ffffffffffffffffffffffffffffffffffffffff1681526020019081526020015f20541015610ddd576040517f08c379a0000000000000000000000000000000000000000000000000000000008152600401610dd490611eeb565b60405180910390fd5b5f8511610e1f576040517f08c379a0000000000000000000000000000000000000000000000000000000008152600401610e1690611f53565b60405180910390fd5b5f73ffffffffffffffffffffffffffffffffffffffff168673ffffffffffffffffffffffffffffffffffffffff1603610e8d576040517f08c379a0000000000000000000000000000000000000000000000000000000008152600401610e8490611fbb565b60405180910390fd5b60025f9054906101000a900473ffffffffffffffffffffffffffffffffffffffff1673ffffffffffffffffffffffffffffffffffffffff16639649daae8484846040518463ffffffff1660e01b8152600401610eeb939291906120da565b602060405180830381865afa158015610f06573d5f5f3e3d5ffd5b505050506040513d601f19601f82011682018060405250810190610f2a919061213b565b610f69576040517f08c379a0000000000000000000000000000000000000000000000000000000008152600401610f60906121b0565b60405180910390fd5b8460035f8973ffffffffffffffffffffffffffffffffffffffff1673ffffffffffffffffffffffffffffffffffffffff1681526020019081526020015f205f828254610fb59190611dd3565b925050819055508460045f8873ffffffffffffffffffffffffffffffffffffffff1673ffffffffffffffffffffffffffffffffffffffff1681526020019081526020015f205f8282546110089190611e6e565b925050819055508573ffffffffffffffffffffffffffffffffffffffff168773ffffffffffffffffffffffffffffffffffffffff167ff5dd6d22db863e115aeb1b91d3f414a3250a00b8769fd54565d308d0813fd32f878760405161106e9291906121ce565b60405180910390a361107e611377565b50505050505050565b61108f611380565b805f81116110d2576040517f08c379a00000000000000000000000000000000000000000000000000000000081526004016110c990611d4d565b60405180910390fd5b8160035f8573ffffffffffffffffffffffffffffffffffffffff1673ffffffffffffffffffffffffffffffffffffffff1681526020019081526020015f205f82825461111e9190611e6e565b925050819055508273ffffffffffffffffffffffffffffffffffffffff167f35db3d768e685509e031bae369804ca7dc6656af739e079f1d3312cadc7b19d88360405161116b919061179d565b60405180910390a2505050565b5f606460035f8473ffffffffffffffffffffffffffffffffffffffff1673ffffffffffffffffffffffffffffffffffffffff1681526020019081526020015f20546111c39190611cd3565b9050919050565b60025f9054906101000a900473ffffffffffffffffffffffffffffffffffffffff1681565b6111f7611380565b5f73ffffffffffffffffffffffffffffffffffffffff168173ffffffffffffffffffffffffffffffffffffffff1603611267575f6040517f1e4fbdf700000000000000000000000000000000000000000000000000000000815260040161125e919061184d565b60405180910390fd5b61127081611468565b50565b60025f54036112ae576040517f3ee5aeb500000000000000000000000000000000000000000000000000000000815260040160405180910390fd5b60025f81905550565b6112bf6107ad565b156112f6576040517fd93c066500000000000000000000000000000000000000000000000000000000815260040160405180910390fd5b565b611372838473ffffffffffffffffffffffffffffffffffffffff1663a9059cbb858560405160240161132b9291906121f5565b604051602081830303815290604052915060e01b6020820180517bffffffffffffffffffffffffffffffffffffffffffffffffffffffff838183161783525050505061160d565b505050565b60015f81905550565b6113886116a8565b73ffffffffffffffffffffffffffffffffffffffff166113a661082d565b73ffffffffffffffffffffffffffffffffffffffff1614611405576113c96116a8565b6040517f118cdaa70000000000000000000000000000000000000000000000000000000081526004016113fc919061184d565b60405180910390fd5b565b61140f6116af565b5f60015f6101000a81548160ff0219169083151502179055507f5db9ee0a495bf2e6ff9c91a7834c1ba4fdd244a5e8aa4e537bd38aeae4b073aa6114516116a8565b60405161145e919061184d565b60405180910390a1565b5f60018054906101000a900473ffffffffffffffffffffffffffffffffffffffff169050816001806101000a81548173ffffffffffffffffffffffffffffffffffffffff021916908373ffffffffffffffffffffffffffffffffffffffff1602179055508173ffffffffffffffffffffffffffffffffffffffff168173ffffffffffffffffffffffffffffffffffffffff167f8be0079c531659141344cd1fd0a4f28419497f9722a3daafe3b4186f6b6457e060405160405180910390a35050565b6115326112b7565b6001805f6101000a81548160ff0219169083151502179055507f62e78cea01bee320cd4e420270b5ea74000d11b0c9f74754ebdbfc544b05a2586115746116a8565b604051611581919061184d565b60405180910390a1565b611607848573ffffffffffffffffffffffffffffffffffffffff166323b872dd8686866040516024016115c09392919061221c565b604051602081830303815290604052915060e01b6020820180517bffffffffffffffffffffffffffffffffffffffffffffffffffffffff838183161783525050505061160d565b50505050565b5f5f60205f8451602086015f885af18061162c576040513d5f823e3d81fd5b3d92505f519150505f8214611645576001811415611660565b5f8473ffffffffffffffffffffffffffffffffffffffff163b145b156116a257836040517f5274afe7000000000000000000000000000000000000000000000000000000008152600401611699919061184d565b60405180910390fd5b50505050565b5f33905090565b6116b76107ad565b6116ed576040517f8dfc202b00000000000000000000000000000000000000000000000000000000815260040160405180910390fd5b565b5f604051905090565b5f5ffd5b5f5ffd5b5f73ffffffffffffffffffffffffffffffffffffffff82169050919050565b5f61172982611700565b9050919050565b6117398161171f565b8114611743575f5ffd5b50565b5f8135905061175481611730565b92915050565b5f6020828403121561176f5761176e6116f8565b5b5f61177c84828501611746565b91505092915050565b5f819050919050565b61179781611785565b82525050565b5f6020820190506117b05f83018461178e565b92915050565b6117bf81611785565b81146117c9575f5ffd5b50565b5f813590506117da816117b6565b92915050565b5f602082840312156117f5576117f46116f8565b5b5f611802848285016117cc565b91505092915050565b5f8115159050919050565b61181f8161180b565b82525050565b5f6020820190506118385f830184611816565b92915050565b6118478161171f565b82525050565b5f6020820190506118605f83018461183e565b92915050565b5f819050919050565b5f61188961188461187f84611700565b611866565b611700565b9050919050565b5f61189a8261186f565b9050919050565b5f6118ab82611890565b9050919050565b6118bb816118a1565b82525050565b5f6020820190506118d45f8301846118b2565b92915050565b5f5f604083850312156118f0576118ef6116f8565b5b5f6118fd85828601611746565b925050602061190e858286016117cc565b9150509250929050565b5f5ffd5b5f5ffd5b5f5ffd5b5f5f83601f84011261193957611938611918565b5b8235905067ffffffffffffffff8111156119565761195561191c565b5b60208301915083600182028301111561197257611971611920565b5b9250929050565b5f601f19601f8301169050919050565b7f4e487b71000000000000000000000000000000000000000000000000000000005f52604160045260245ffd5b6119bf82611979565b810181811067ffffffffffffffff821117156119de576119dd611989565b5b80604052505050565b5f6119f06116ef565b90506119fc82826119b6565b919050565b5f67ffffffffffffffff821115611a1b57611a1a611989565b5b602082029050602081019050919050565b5f611a3e611a3984611a01565b6119e7565b90508083825260208201905060208402830185811115611a6157611a60611920565b5b835b81811015611a8a5780611a7688826117cc565b845260208401935050602081019050611a63565b5050509392505050565b5f82601f830112611aa857611aa7611918565b5b8135611ab8848260208601611a2c565b91505092915050565b5f5f5f5f5f5f5f60c0888a031215611adc57611adb6116f8565b5b5f611ae98a828b01611746565b9750506020611afa8a828b01611746565b9650506040611b0b8a828b016117cc565b9550506060611b1c8a828b016117cc565b945050608088013567ffffffffffffffff811115611b3d57611b3c6116fc565b5b611b498a828b01611924565b935093505060a088013567ffffffffffffffff811115611b6c57611b6b6116fc565b5b611b788a828b01611a94565b91505092959891949750929550565b5f611b9182611890565b9050919050565b611ba181611b87565b82525050565b5f602082019050611bba5f830184611b98565b92915050565b5f82825260208201905092915050565b7f4e6f2062616c616e636520746f207769746864726177000000000000000000005f82015250565b5f611c04601683611bc0565b9150611c0f82611bd0565b602082019050919050565b5f6020820190508181035f830152611c3181611bf8565b9050919050565b7f4e487b71000000000000000000000000000000000000000000000000000000005f52601160045260245ffd5b5f611c6f82611785565b9150611c7a83611785565b9250828202611c8881611785565b91508282048414831517611c9f57611c9e611c38565b5b5092915050565b7f4e487b71000000000000000000000000000000000000000000000000000000005f52601260045260245ffd5b5f611cdd82611785565b9150611ce883611785565b925082611cf857611cf7611ca6565b5b828204905092915050565b7f416d6f756e74206d7573742062652067726561746572207468616e20300000005f82015250565b5f611d37601d83611bc0565b9150611d4282611d03565b602082019050919050565b5f6020820190508181035f830152611d6481611d2b565b9050919050565b7f496e73756666696369656e742062616c616e63650000000000000000000000005f82015250565b5f611d9f601483611bc0565b9150611daa82611d6b565b602082019050919050565b5f6020820190508181035f830152611dcc81611d93565b9050919050565b5f611ddd82611785565b9150611de883611785565b9250828203905081811115611e0057611dff611c38565b5b92915050565b7f496e76616c6964207665726966696572206164647265737300000000000000005f82015250565b5f611e3a601883611bc0565b9150611e4582611e06565b602082019050919050565b5f6020820190508181035f830152611e6781611e2e565b9050919050565b5f611e7882611785565b9150611e8383611785565b9250828201905080821115611e9b57611e9a611c38565b5b92915050565b7f496e73756666696369656e7420757365722062616c616e6365000000000000005f82015250565b5f611ed5601983611bc0565b9150611ee082611ea1565b602082019050919050565b5f6020820190508181035f830152611f0281611ec9565b9050919050565b7f496e76616c6964207061796d656e7420616d6f756e74000000000000000000005f82015250565b5f611f3d601683611bc0565b9150611f4882611f09565b602082019050919050565b5f6020820190508181035f830152611f6a81611f31565b9050919050565b7f496e76616c69642070726f7669646572206164647265737300000000000000005f82015250565b5f611fa5601883611bc0565b9150611fb082611f71565b602082019050919050565b5f6020820190508181035f830152611fd281611f99565b9050919050565b5f82825260208201905092915050565b828183375f83830152505050565b5f6120028385611fd9565b935061200f838584611fe9565b61201883611979565b840190509392505050565b5f81519050919050565b5f82825260208201905092915050565b5f819050602082019050919050565b61205581611785565b82525050565b5f612066838361204c565b60208301905092915050565b5f602082019050919050565b5f61208882612023565b612092818561202d565b935061209d8361203d565b805f5b838110156120cd5781516120b4888261205b565b97506120bf83612072565b9250506001810190506120a0565b5085935050505092915050565b5f6040820190508181035f8301526120f3818587611ff7565b90508181036020830152612107818461207e565b9050949350505050565b61211a8161180b565b8114612124575f5ffd5b50565b5f8151905061213581612111565b92915050565b5f602082840312156121505761214f6116f8565b5b5f61215d84828501612127565b91505092915050565b7f496e76616c6964205a4b2070726f6f66000000000000000000000000000000005f82015250565b5f61219a601083611bc0565b91506121a582612166565b602082019050919050565b5f6020820190508181035f8301526121c78161218e565b9050919050565b5f6040820190506121e15f83018561178e565b6121ee602083018461178e565b9392505050565b5f6040820190506122085f83018561183e565b612215602083018461178e565b9392505050565b5f60608201905061222f5f83018661183e565b61223c602083018561183e565b612249604083018461178e565b94935050505056fea2646970667358221220612ed5ce2d2a57d26088f6205e0503237678967ce710b98df9b5692abab4213e64736f6c634300081e0033",
    "linkReferences": {}
  },
  "methodIdentifiers": {
    "deposit(uint256)": "b6b55f25",
    "depositForUser(address,uint256)": "cbd076f8",
    "emergencyWithdraw(address,uint256)": "95ccea67",
    "getProviderBalance(address)": "832eea0c",
    "getUserBalance(address)": "47734892",
    "getUserBalanceUSD(address)": "cec2834a",
    "owner()": "8da5cb5b",
    "pause()": "8456cb59",
    "paused()": "5c975abb",
    "processBatchPayment(address,address,uint256,uint256,bytes,uint256[])": "c646a19b",
    "providerBalances(address)": "28ac7f2c",
    "providerWithdraw(uint256)": "9e2176f9",
    "providerWithdrawAll()": "2c1e38e1",
    "pyusdToken()": "91763009",
    "renounceOwnership()": "715018a6",
    "setZkVerifier(address)": "96913528",
    "transferOwnership(address)": "f2fde38b",
    "unpause()": "3f4ba83a",
    "userBalances(address)": "26224c64",
    "withdraw(uint256)": "2e1a7d4d",
    "zkVerifier()": "d6df096d"
  },
  "id": 26
}